:020000041000EA
:1000000000B5324B212058609868022188439860DF
:10001000D860186158612E4B002199600221596106
:100020000121F02299502B49196001219960352056
:1000300000F044F80222904214D00621196600F024
:1000400034F8196E01211966002018661A6600F04E
:100050002CF8196E196E196E052000F02FF8012189
:100060000842F9D1002199601B49196000215960AB
:100070001A491B48016001219960EB211966A021F2
:10008000196600F012F800219960164914480160C1
:100090000121996001BC002800D000471248134993
:1000A000086003C880F30888084703B5996A0420EC
:1000B0000142FBD001200142F8D103BD02B5186610
:1000C0001866FFF7F2FF186E186E02BD00000240BE
:1000D000000000180000070000035F00212200005C
:1000E000F4000018222000A00001001008ED00E03C
:1000F00000000000000000000000000074B24E7A12
:1001000000200420F7010010C3010010C5010010F9
:10011000C1010010C1010010C1010010C101001097
:10012000C1010010C1010010C1010010C701001081
:10013000C1010010C1010010C9010010CB01001065
:10014000CD010010CD010010CD010010CD01001037
:10015000CD010010CD010010CD010010CD01001027
:10016000CD010010CD010010CD010010CD01001017
:10017000CD010010CD010010CD010010CD01001007
:10018000CD010010CD010010CD010010CD010010F7
:10019000CD010010CD010010CD010010CD010010E7
:1001A000CD010010CD010010CD010010CD010010D7
:1001B000CD010010CD010010CD010010CD010010C7
:1001C00000BE00BE00BE00BE00BE00BE00F04BF888
:1001D000103800BEF2EB88713C51001058510010ED
:1001E0003402001090A31AE700202149086006C8D5
:1001F00081F3088810471F48006800282FD10DA4FC
:100200000ECC002902D000F012F8F9E71A491B4A77
:10021000002000E001C19142FCD1194988471949E9
:1002200088471949884700BEFDE701C901C29A42C3
:10023000FBD3704758510010C0000020600200201E
:10024000F85200100000042000000420F8520010B2
:1002500000100420001004200000000070470B482C
:1002600001F046FA0047EFF30580C0B27047000086
:1002700008ED00E0000000D060020020140A022017
:10028000A91100100D03001099120010575600001C
:1002900006005250ABB36053B850001006005250E5
:1002A000861C0302C8500010060052505422A29D22
:1002B000D050001005005250DE65F468F85200106E
:1002C000F8B5C04610B5064C2378002B07D1054B76
:1002D000002B02D0044800E000BF0123237010BDB2
:1002E000A00500200000000010500010044B10B5C5
:1002F000002B03D00349044800E000BF10BDC046F6
:1003000000000000A40500201050001010B51920B6
:1003100082B000F043F8D02380221B0692045A6278
:1003200000240123802200930949002301940948F5
:1003300004F000F90223802207490093019400236E
:10034000064804F0F7F803F051FE02B010BDC046B5
:1003500010500010610300101C50001081030010A9
:1003600070B5D02580242D06A404FA206C6180008D
:1003700004F06AF8FA20AC61800004F065F8F4E754
:1003800070B5D02580242D06A4046C61C82004F02B
:100390005BF8AC61C82004F057F8F6E70123D022DF
:1003A0008340120693629361094A83009446402277
:1003B00063441968C0004A40C021114080225201A4
:1003C00013431960034B9C46052360444360704708
:1003D00004C001400040014070B5EFF3108C72B6CC
:1003E0000D4D2B68002BFCD0BFF35F8F0724CB088B
:1003F000C618C05C01230C40A3401C00044003420B
:1004000007D103433370BFF35F8F2C608CF31088E8
:1004100070BD100000F042FF2C0100D0024B1868A4
:100420008007C00F7047C04600C006400021044B43
:10043000044ABFF35F8F02C39342FAD17047C046AC
:10044000000100D0800100D0044A1078431CDBB2C8
:10045000172B00D9102313707047C0469801002055
:1004600010B50100024A0348FFF7B6FF10BDC046B1
:100470002C500010CC05002001238340002904D01B
:10048000034A1360034A13607047034A1360FBE793
:1004900080E200E000E100E080E100E00122824033
:1004A000034B1B6813405A1E9341D8B27047C04695
:1004B00000E100E0024B10309B688000C05870479C
:1004C00000ED00E070B50D00EFF3108672B60F4A34
:1004D0001368002BFCD0BFF35F8F0D4B10309B686F
:1004E00084001B590B4A934203D09D4201D000F077
:1004F000F3FE074B9B681D51BFF35F8FBFF35F8F08
:100500000022024B1A6086F3108870BD240100D0CF
:1005100000ED00E0CD010010F0B5DE4657464E4636
:100520004546E0B50C0083B0EFF3108A72B65A4A24
:100530001368002BFCD0BFF35F8F102291468144DB
:100540004A46564B96009B689D59554B98469D428E
:1005500005D0A54216D0534FEB1B2F2B14D94F4B70
:100560009B689D51BFF35F8FBFF35F8F00224A4BA3
:100570001A608AF3108803B0F0BCBB46B246A946A5
:10058000A046F0BD1D00EAE7012383409B465A4682
:10059000454B1B681A4000925A46444B1A60BFF301
:1005A0005F8FFFF760FE0190002803D0814501D0E6
:1005B00000F092FE01232A009A4393689C4208D1DE
:1005C0005FE04B005B189B00FB189968A14211D0BB
:1005D0001A00062151560029F3DA009B002B05D0A2
:1005E0005A46334B1A60304B1A60B8E75A462F4BC5
:1005F0001A60B4E706215956002921DB4A00501839
:1006000080003C188046A0689860E079D871062088
:1006100020569871002824DBA488F81A6405241554
:1006200044440019E0240005400D24022043988032
:100630005218204B9200BF181A781970BA71CCE783
:100640000199002910D1FF3191711B4991801949FD
:100650000A789A71194ADB1B5B415A43120D0A70E2
:10066000BBE7BD200002E2E7154A1649D21A083A54
:100670005002400D01439980134952080A43DA8021
:10068000ABE70621515613000029B7DA019A002A78
:10069000EAD14546DBE7C046240100D000ED00E08A
:1006A000CD0100109C01002000E100E080E100E0AD
:1006B00080E200E0110A022000BDFFFFAAAA0000AC
:1006C000D601002000F0FFFF00F8FFFF032310B564
:1006D0000400074A18409446C0009C43FC33834002
:1006E0006444226881409A4313000B43236010BD89
:1006F00000E400E0F8B5012504000543FFF7B3FD71
:10070000EFF3108C72B6214A1368002BFCD0BFF3B4
:100710005F8F1F4E2100B7681E4A1F4B891A49413F
:100720004B431B0D59B28300F858A8421CD0062336
:10073000D3568B421CD01223D3568B4222D01E2379
:10074000D3568B4220D02A23D35603208B4210D07D
:10075000124B1A781970A271BFF35F8F00220B4BF6
:100760001A608CF31088F8BDB2680D48D050EFE7DE
:10077000002043001B189B00D218FF239371094BE4
:100780009380E5E70120F4E70220F2E7240100D09E
:1007900000ED00E09C010020AAAA0000110A02203E
:1007A000CD01001000BDFFFF054B064A1360064A4D
:1007B000136053609360D36013615361936170471A
:1007C0008080808000E400E004E400E0024B9C466E
:1007D00061448900016070474000003483680B4821
:1007E00010B5844661446244090112019A185918EF
:1007F00054684B6801209C4201D802D00020C0B24E
:1008000010BD12680B689A42F9D8F7E7FFFFFF0F97
:10081000F8B557464E464546DE46E0B599460CAB20
:100820001C780DAB1B78060090469A460768002C92
:1008300011D1BC7B002C42D065003B682D19033DD3
:1008400059194B78BB73002B00D1FB7300238B70BD
:100850004B700B7004E065003B682D19033D59197E
:10086000B2682A4B94464246E3181B0163441A605F
:100870004A465A600A9A9A600B9ADA6000238B7093
:100880004B700B707B7B9B46002B2BD02200594674
:10089000B8687B6898473A68002816D05B46584687
:1008A0005B005B445519033BA870D118D35C002B47
:1008B00000D06B705B460C707B73A34513D0F0BC0B
:1008C000BB46B246A946A046F8BD5B465B005B440A
:1008D000033BD3189C705119525D002A00D05A7006
:1008E0005B460B707C7342464B46307D00F0DEF970
:1008F000051E06D05346002B03D12100306800F0BE
:10090000F7FB0E9B002BDAD01D70D8E7FFFFFF0F1F
:10091000F0B5DE464E46574645460023E0B58DB05D
:100920000A936B4B8200D3580B90994600239B4649
:100930004B46079300F06AF9079C06000F006268B7
:10094000EFF3108572B61368002BFCD022000794D9
:10095000BFF35F8F2468637B9946002B67D0926852
:100960005C4B90464B441B01984443461A685B68B5
:1009700010001900801BB94100295FDD0B9800F0C1
:1009800095F900230026984600279A46079C63683D
:10099000BFF35F8F5A461A6085F310885346002BC9
:1009A00008D10028C6D10DB0F0BCBB46B246A9465E
:1009B000A046F0BD0A9B414618024B461843D0475B
:1009C000089009916268EFF3108572B61368002BE6
:1009D000FCD00794BFF35F8F0899099A002A48DB7F
:1009E000114303D0079B1B69002B5DD1079B1B683C
:1009F000D97B002907D04A00521819688C4649460D
:100A00006244033A51704A46DA734B46079A013BF7
:100A1000D168CA5C0132CA545B46079A13615368B5
:100A2000BFF35F8F5A461A6085F3108882E7002370
:100A30000026984600279A460020A7E7002901D102
:100A400000289BD10021200000F0D4FA43461E6804
:100A50005F689B68079A9A464346DB689846D36866
:100A60004B44013B1B780A931B0203431361002094
:100A70008CE72369002BB9D033003C005B1A94410A
:100A80001A002300A74219D89F421BD0594604914F
:100A9000012103914946029141460191514607982F
:100AA0000091FFF7B5FEB7E700F0B0F8089A099B90
:100AB00006000F0092197B419942E5D9012252426A
:100AC000D317E3E79642E1D901225242D317DDE77B
:100AD00044060020FFFFFF0F10B5124C6368002B87
:100AE00004D00A211048FFF771FE10BD23000F4A01
:100AF0001021206800F09CF9032000F07BF803200F
:100B000000F044F903200A4900F08AF8FFF79CFC42
:100B1000084B9C46032360442375074B80006060AC
:100B2000DC60DEE7E4010020FC080020DD070010A7
:100B3000110900104000003444060020F0B5D646EC
:100B40004F464646C0B5EFF305833F2213401800D9
:100B50001038EFF3108C72B6204D2A68002AFCD0B2
:100B6000BFF35F8F0122110081401D4C88466163F5
:100B70001C4917000E788A463100C1400F400A42D6
:100B800009D1BFF35F8F2F608CF31088E0BCBA46A9
:100B9000B146A846F0BD14498200646A51588C429F
:100BA0000FD3124BD25843469E4353461E70BFF399
:100BB0005F8F00232B608CF31088002AE6D09047CB
:100BC000E4E70B4A9B00904643441A681A60BFF35F
:100BD0005F8F00232B608CF31088D7E7280100D0AB
:100BE00000400540120A022000090020BC05002038
:100BF000D03F054010B50100024A0348FFF7ECFB67
:100C000010BDC0464C500010100A0220034B596A18
:100C10000A00986A596A8A42FAD170470040054032
:100C200070B504000D00EFF3108672B61A4A13680F
:100C3000002BFCD0BFF35F8F002D1BD02000FFF7EF
:100C400039FC164981420AD02000FFF73BFC012104
:100C50002000FFF711FC0123A340114A1360114B40
:100C6000A400E550BFF35F8F00220B4B1A6086F3A0
:100C7000108870BD0B4BA200D5500122A2400A493A
:100C800020000B7893430B700449FFF745FC0021CB
:100C90002000FFF7F1FBE5E7280100D03D0B001035
:100CA00038600540BC050020120A0220F0B54F460E
:100CB000D6464646C0B507002F4C616A0D00A66AAD
:100CC000616AA942FAD18B4208D805D00120E0BC64
:100CD000BA46B146A846F0BDB242F7D9EFF3108A42
:100CE00072B6264801680029FCD0BFF35F8F01254A
:100CF000BD402349204C8846097889462943C9B21A
:100D00008C46414660460870391D1E48890065635F
:100D10000A51B9000B50216A0020294219D0616A9A
:100D20000800A66A616A8142FAD18B4219D801D1C2
:100D3000B24216D8CC451DD00F4B1F201D625D63FB
:100D400001230740BB40104A1E38136043464A4601
:100D50001A70BFF35F8F0022084B1A608AF3108865
:100D6000B5E70020BFF35F8F0022044B1A608AF3BF
:100D70001088ACE70120ECE700400540280100D0D6
:100D8000120A02200009002080E200E0EFF3108C3C
:100D900072B60A490B68002BFCD0BFF35F8F0123AA
:100DA0008340074A0748136202789A430270BFF3F0
:100DB0005F8F00230B608CF310887047280100D0F0
:100DC00000400540120A022070B50500140016000C
:100DD000002915D00C00002A12D080686B68984753
:100DE000296800280ED073009B196200033B12197A
:100DF000CB18033A9C7088188A5C002A15D10670BB
:100E0000200070BD63001B197200033B9219CB18C0
:100E1000033A9E7088188A5C002A02D1047034005C
:100E2000EEE75A7004703400EAE75A700670E7E79C
:100E300030B583600023CCB2437301330473426046
:100E40008373C4730D000068012C06D9421C013362
:100E5000DBB2137003329C42F9D1FF2129404B00D1
:100E60005918002340180338437030BDF8B5CE46FA
:100E7000474606000C0080B5002907D04D000368E6
:100E80006D18033D5A195778002F04D12000C0BCBB
:100E9000B946B046F8BD7900C919033988464344BC
:100EA0005978894600215970517073683A002100C1
:100EB000806898473368002814D042469A18947086
:100EC00059195B5D002B00D053700F702700494605
:100ED0003000FFF7CBFF390002003000FFF774FF4E
:100EE0000400D3E7424641465D19AF709A185B5C37
:100EF000002B00D06B701470E9E7C046F0B5574680
:100F00004546DE464E46E0B50D006B0001685B19B4
:100F1000DF1E0400C85D83B00192CA1900284CD0BE
:100F200043001B18033BCB185E78B446002E16D145
:100F3000019E002E3ED0E67B002E04D073009B194C
:100F4000CB18033B5D70E57300282FD1002353704D
:100F500003B0F0BCBB46B246A946A046F0BD720045
:100F60006244033A89184A78904600224A709146B2
:100F70005A70010032002000FFF726FF43468246E8
:100F8000002B07D05B0021684344033BCB185A7801
:100F9000002A16D1424651462000FFF715FF21686E
:100FA000019BCA19002BC6D10028CFD043001B18C3
:100FB000033BCB1800219970C8E7019B002BBAD1E5
:100FC000C4E750008018033809184878834648461B
:100FD0004870587041462000FFF7F6FE594680469B
:100FE0002000FFF743FF414602002000FFF7ECFE20
:100FF0008046CFE7F0B557464546DE464E46E0B55B
:1010000083B00191457B04006B0000685B19DF1E13
:10101000C15DC21900294ED04B005B18033BC318B9
:101020005E78B446002E18D1019E002E40D0E67B9B
:10103000002E04D073009B19C318033B5D70E57349
:10104000002931D1002328005370617303B0F0BC34
:10105000BB46B246A946A046F0BD72006244033AC0
:101060008018427890460022427091465A702000C3
:101070003200FFF7A9FE43468246002B07D05B00F3
:1010800021684344033BCB185A78002A17D14246C3
:1010900051462000FFF798FE019B01002068C2190D
:1010A000002BC4D10029CDD04B005B18033BC318E3
:1010B00000209870C6E7019B002BB8D1C2E7500012
:1010C0008018033809184878834648464870587095
:1010D00041462000FFF778FE594680462000FFF782
:1010E000C5FE414602002000FFF76EFE8046CEE7B7
:1010F00070B5040000292CD0437B8B422ED00568AC
:1011000048004018033828188278002A21D053005C
:101110009B18033BEA5CEE188A4202D11BE0002ACE
:1011200008D053009B18033BEB185A788A42F6D13B
:1011300042785A7000230122837043702000FFF729
:10114000DDFE617B02002000FFF73EFE60730120A0
:1011500000E0002070BD43783370EBE701221900F6
:10116000FFF7CCFE60730120F4E7C04610B5040021
:10117000FFF76AF901002000FFF728FB01235B421B
:101180006360BFF35F8F10BD10B50400FFF75CF91B
:1011900001002000FFF71AFB01235B42636000237C
:1011A0002372BFF35F8F10BD2C4B2D4A70B51A60B0
:1011B0002C4A2D4B2D491A6014008B689C43FBD19F
:1011C0002B4D2C4EB54208D2013E761BB60808CDF9
:1011D000984723000134B342F9D100F083F8264A3E
:1011E000214B1A60214A9368DB43DB01DD09002BA8
:1011F000F9D14022214B224C224E9A675A671A6736
:10120000DA66B44208D223682000002B20D00C34C8
:10121000FFF7BAFFB442F6D31B4E1C4CC022A168A4
:10122000300000F073FBA660FFF700F9FFF7BCFA8F
:10123000FFF752FC164C174EB44208D2013E361B43
:10124000B60808CC98472B0001359E42F9D170BDF5
:101250000834FFF78BFFB442D5D3DDE700E0004050
:10126000BFCDFBFEFE7F3C0000F0004000C0004010
:101270004802002058020020FFFFFF0100F001405B
:1012800038020020480200200000002000ED00E0AD
:10129000580200206002002000BEFDE70FB400B538
:1012A000084883B000F066FC049B002B07D005A91A
:1012B0001800019100F0F6F9034800F05BFC00BE55
:1012C000FDE7C046705000108050001010B5014876
:1012D000FFF7E4FF8450001010B50148FFF7DEFF70
:1012E0009450001030B50C2083B000F0B7F9FFF730
:1012F00095F800280ED0944B944A1A605A609A6070
:10130000DA601A615A619A61DA611A62904A5A6225
:1013100003B030BD8F4CA06700F0A8F901228E4BBE
:101320001A60636C012BFCD103228C4B1A60894A32
:10133000936B012BFCD101330121894A8948009329
:10134000043300F033F90523874A009301218748CD
:1013500000F02CF9864B5A68FF2A02D880225200EE
:101360005A608022784C7D4B21691201804D1A60B1
:10137000002905D0606900F0EDF901300138FDD198
:10138000E0217B4B02201A681140802252012A433F
:1013900011601968484003210140116004219A68D6
:1013A0001142FCD08022802192012A430901116060
:1013B000802252005A606F4B23616F4B5968FF299E
:1013C00000D85A600321644A6B4B116002399A6855
:1013D0001142FCD0E0201A681040802252011A43CA
:1013E00010601868484003210140022011606249E2
:1013F0008A681042FCD0802292011343802212019D
:101400001A6080225D4B52004A6063615C4B5968F0
:10141000FF2900D85A6080225A4BE1691201584DC9
:101420001A60002905D0606900F094F90130013894
:10143000FDD1E02252490B681A4080235B012B4307
:101440001A60802380229B012B4312011A608022A4
:101450003E4B52004A60E3614B4B5968FF2900D86C
:101460005A608022494B216A1201474D1A600029B7
:1014700005D0606900F06EF901300138FDD1E0223D
:1014800041490B681A4080235B012B431A6080237B
:1014900080229B012B4312011A60802380225B0073
:1014A0004B602A4BD2022362394B5968914200D2D9
:1014B0005A608022374B616A1201354D1A6000294B
:1014C00005D0606900F046F901300138FDD1E02215
:1014D0002F490B681A4080235B012B431A6080233D
:1014E00080229B012B4312011A608023DB024B6098
:1014F000174B6362284B5A68FF2A02D88022520099
:101500005A608022254BA1691201234D1A600029DF
:1015100005D0606900F01EF901300138FDD1E022EC
:101520001D490B681A4080235B012B431A608023FE
:1015300080229B012B4312011A6080235B004B60C9
:101540000E4BA361E4E6C046D0050020006CDC022F
:101550001BB70000008000403CB0004030B00040AD
:10156000002F685900800240008C864700C002406E
:1015700030800040001BB7003C800040405973079A
:101580005480004054B000406080004060B0004093
:101590006C8000406CB000404880004048B0004083
:1015A000014B8000C0587047D0050020F0B5C646FA
:1015B000040000B50C2090461F000E0000F0CAF891
:1015C0004101091A8D01691AC900091889014046AB
:1015D00000F0C0F8069B3F041A0323681743002B52
:1015E00022DB1A4B1A4DE21853425A4180235B0109
:1015F0009C461203174B62441A60174B1A60110085
:10160000AB689943FBD1C022231D92011A432123C9
:101610002660A06013602368002BFCDA0823E760D3
:10162000136080BCB846F0BD3F2322681340B3422C
:10163000D7D1A3681B051B0D8342D2D1EE22E368EC
:10164000D2021340BB42CCD1EBE7C0460040FDBF05
:1016500000C0004000E0004000F000408023024A4B
:101660009B000343D362704700800540AA23064ACB
:101670001B0113602F230549D360054B1960536884
:10168000002BFCDA7047C0460040024000B0FA0070
:101690000060024010B5002800D110BD00F01AFA19
:1016A000FBE7C04610B5094A0300146884B0002C5B
:1016B00008D0012200910648524203A9A047012008
:1016C00004B010BD00F056FA0020F9E740060020F3
:1016D0009516001001480421014B18471002002004
:1016E00011170010014B5B68184700001002002022
:1016F000142310B50100188804331B88984710BDC7
:10170000162310B50100188802331B88984710BDB6
:10171000F8B54746CE4680B50F1E19D0142399461A
:10172000043304000025012698464B46188843469A
:1017300021681B88984701C4431E984101354042E7
:101740000640AF42F1D13000C0BCB946B046F8BD4A
:101750000126F8E7114A936F9B0813D21066516671
:10176000002905D0FFE7FFE7FFE7516F106F7047D3
:1017700004B5002801D00020C04303F031FC002153
:1017800004BDC046F0B5146E556E576F166FFFF767
:10179000E5FF1466556657671667F0BD000000D078
:1017A000132370B51D78012D15D010DD1C48FFF7EF
:1017B000A7FF1C4C01008022200000F0A7F8022D9A
:1017C00006D01948FFF794FF184B186070BD154CF0
:1017D000174BA364F5E7164B124C23606360A360BC
:1017E000E36023616361A361E36123626362A362D7
:1017F000E36223636363A363E36323646364A364B7
:10180000E36423656365A365E36523666366A36696
:10181000E36623676367A367E367A364D1E7C04612
:1018200053440000600300204C330000F8080020FF
:101830003518001007B5604601880A0A0230DF2A11
:10184000FAD1C9B2820804D3028840880004104348
:1018500000E00068014A5050039007BD600300207B
:10186000132310B512481C78FFF74AFF0100012C22
:101870000AD003DD80220F4800F048F80E48FFF739
:1018800037FF0E4B186010BD0A4C5422200000F0A8
:101890003DF80B4B6365A365E36523666366A3664A
:1018A000E36623676367A367E3672362E361E5E7B2
:1018B00053460000600400204C330000F80800206C
:1018C000C518001007B5604601880A0A0230DF2AF1
:1018D000FAD1C9B2820804D30288408800041043B8
:1018E00000E00068014A5050039007BD60040020EA
:1018F00001480421014B1847200200201117001055
:10190000014B1B681847000020020020014B5B6858
:101910001847000020020020030010B50800110045
:101920001B68984710BDC046F0B546464F46D646A0
:10193000C0B5437C80460E001700002B46D0002A1D
:101940003FDD4B1E9946244B0125002400209A467A
:101950000DE04B461B5D0D3B5A425341325DDBB2FD
:101960000A2A0BD02B00013401359F421ADD002CCE
:10197000EFD14346325D1B7C0A2AF3D1002BF1D113
:10198000A04204DA4346211A1B68301898474346A0
:1019900050461B6802219847013428002B0001356E
:1019A0009F42E4DC874204DD4346391A1B68301845
:1019B0009847F619013E33780D3B5A42534142464F
:1019C0001374E0BCBA46B146A846F0BD03681100E6
:1019D00030009847F5E7C04600510010F0B5DE46EC
:1019E00057464E464546E0B583B00D0091461C0073
:1019F000060000F037FA324B070001A918009A469A
:101A000003F0F6FA8046002807D1019B9F4204D0DC
:101A1000504603F0F5FA012398466B1C03D13000C1
:101A200003F0A6FA0500002C27D1264F264B1C6890
:101A3000002C18D04B46002B21D1244B994602E0B4
:101A4000E468002C0FD02368002BF9D04B461B68AC
:101A5000002B01D0A342F3D120002A003100B84767
:101A6000E468002CEFD14346002B25D103B0F0BC35
:101A7000BB46B246A946A046F0BD154FD6E7134B6C
:101A800099460A239B4602E0E468002CEBD02368C9
:101A9000002BF9D04B461B68002B01D0A342F3D199
:101AA0002A0031002000B8475A466B4620001A71C0
:101AB00001A90122B847E7E7504603F089FAD5E7C4
:101AC0004002002029190010380600203C060020A2
:101AD00019190010F0B5CE46474680B583B06B4665
:101AE0008046DE1C307000F0BDF91F4B040001A9D8
:101AF0001800994603F07CFA071E20D01B4B1C6887
:101B0000002C27D01A4D02E0E468002C0FD0236887
:101B1000002BF9D02B68002B01D0A342F4D1200078
:101B200001223100FFF700FFE468002CEFD1002F05
:101B300010D1404603B0C0BCB946B046F0BD019BD1
:101B40009C420BD0484603F05BFA084B01271C6807
:101B5000002CD7D1484603F03BFAEAE7034B1C6858
:101B6000002CCFD1E5E7C046400200203806002017
:101B70003C06002070B5040003F0FAF900230100D0
:101B8000050001222000FFF729FF084B1C68002CEC
:101B900006D06368002B05D09847E468002CF8D184
:101BA000280070BDE468002CF3D1F9E73806002066
:101BB0007047C04600000000000000000000000068
:101BC0000BA10CC9126892009B581868203080F352
:101BD0000988022080F31488BFF36F8F3FBCAE46A4
:101BE00008BC04BC62B61847C046C046C046C046E2
:101BF000000000D054060020D0231B061A6DD20727
:101C000004D501219A6D1A6D1142FBD1D023FF2218
:101C10001B061A658022024B52051A607047C046A7
:101C200004ED00E0000000000000000000000000E3
:101C3000EFF309811AA00CC8106880001B181868FF
:101C400020390160F0C144464D4656465F46F0C11A
:101C5000146E556E566F176F3039F0C1106808B5A5
:101C600072B601F0A1FB62B60CBC116808681030B6
:101C7000F0C8A046A946B246BB4680F309880D22AB
:101C800012073038F0C81466556656671767F0C8F3
:101C90001847C046C046C046C046C046C046C046BB
:101CA000000000D05406002010B5EFF3108472B687
:101CB00001F0A4FF02F0FAF9002803D08022044BBF
:101CC00052051A6002F0A8FD84F3108810BDC046CA
:101CD00004ED00E010B5FFF7F9FAC04610B5802416
:101CE000031F64041C60043B19600349043B196032
:101CF000143B40381A6010BDD51C00108022044BE4
:101D000052051A60BFF34F8FBFF36F8F7047C04605
:101D100004ED00E0D0231B061B6808499B005A58BD
:101D2000002A08D00020585005495B58BFF35F8F48
:101D3000106083F3108862B67047C046F008002038
:101D400018090220D02300221B065A657047C0469E
:101D5000002310B5084A094C052023601360FFF7E3
:101D60001FFCFA218900FFF7F5FC054B01381860CC
:101D70000723236010BDC04618E000E010E000E03B
:101D800014E000E070B5244B1A78D0231B061B68C2
:101D90009A4232D0FF230220204A1B04116840429D
:101DA0000B4313601E4902F051FF05201D494042BC
:101DB00002F04CFFD023FF221B061A651A6DD207D2
:101DC00004D501219A6D1A6D1142FBD1D0252D0643
:101DD0002C68FF210F342000FEF778FC2000124908
:101DE000FEF770FB01212000FEF746FBFFF7E8FE3F
:101DF000286801F0D9FAFFF769FAFFF7A9FFFF2376
:101E00000120064A1B06116840420B431360074934
:101E100002F01CFFBEE7C0463002002020ED00E0CB
:101E2000311C0010B11B0010F91B0010A91C001080
:101E300010B5EFF3108372B6FFF7A4FF10B50E20B4
:101E4000FEF70EFB0F20FEF70BFB0022034B0448AE
:101E50001A7002F069FFFFF795FFC04630020020BC
:101E6000311E001010B50A4B1B78FF2B03D1D02375
:101E70001B06186810BDFEF7F6F9002805D0D02320
:101E80001B061B684000C018F4E701F0BDFDF1E738
:101E90003002002000B5154B83B01B78FF2B09D111
:101EA0000368BFF35F8F00221A6081F3108820BFA0
:101EB00003B000BDD0231B061A6803680C489200CB
:101EC00013500C4811500C4A0221944663449B1055
:101ED000FF319940094B0122186801235B420093AE
:101EE000090A002300F0A8F8E2E7C046300200200B
:101EF000F00800201809022000FFFF2F88090220A7
:101F000000B51C4A0B00127883B0FF2A29D01A4969
:101F100002688C46022162449210FF319140090A06
:101F200040BF0068BFF35F8F0022026083F3108818
:101F3000EFF30583DBB2002B05D1104B186800F0DE
:101F4000D7F803B000BD0D4B0192186801AA00F04C
:101F500017F9019B002BF4D08022094B52051A601F
:101F6000EFE740BF0268BFF35F8F0021116083F38A
:101F70001088E6E73002002000FFFF2F88090220CA
:101F800004ED00E010B500F04BF8014B186010BDF7
:101F900088090220F8B5DE4657464E464546E0B56C
:101FA00005000F00060001F075F929682C69394316
:101FB0000C362960A6422AD0002398468023DB04F1
:101FC0009B4680235B049A4680239B0499460EE03F
:101FD0000B420AD057463A4202D042461A43904634
:101FE0004B46194302F068FA2968A6420DD020003A
:101FF0005F460268646813021B0A3A42E8D01F0079
:102000000F40BB42E6D0A642F1D143469943296036
:1020100002F00EFAF0BCBB46B246A946A046F8BD97
:1020200010B51C2002F0A6FE041E03D0002308C039
:1020300000F0B0F8200010BDF0B5C646060000B5AF
:102040000D0090461F0001F025F93468002F0AD1D9
:1020500025420CD04346002B0CD02300AB43336009
:1020600002F0E6F908E02B0023409D42F2D0069BE7
:10207000002B05D102F0DCF9200080BCB846F0BD91
:102080004346002B16D180210023C904002F00D124
:102090001900069A2943301D01F06CFA02F0C8F9C4
:1020A00000281CD002F0D2FB0400830107D52402D3
:1020B000240AE1E7A0218023C9045B04E6E701F0DC
:1020C0009DFD3468002F0DD12C4205D04346002BD6
:1020D00002D02300AB43336002F09EFBE7E701F040
:1020E00073FDDFE723002B409D42F5D1EEE7C046AC
:1020F000F8B5DE4657464E464546E0B505000F00AA
:10210000060001F0C7F829682C6939430C362960AC
:10211000A6422AD0002398468023DB049B468023D6
:102120005B049A4680239B0499460EE019420AD02C
:1021300057463A4202D042461A4390464B4619430C
:1021400002F0BAF92968A6420DD020005F46026865
:10215000646813021B0A3A42E8D00F001F409F42F6
:10216000E6D0A642F1D143469943296002F060F9D6
:102170002868F0BCBB46B246A946A046F8BDC0469A
:1021800010B513000A000100014802F04BFD10BD1C
:10219000951F00100300083301224360C3600361F0
:1021A00000235242826003607047C04600230361EF
:1021B0007047C04643689A684B608A609A6851606D
:1021C000996003680861013303607047030030B50C
:1021D0000C680833621C0DD01A005B681D68A542AC
:1021E000FAD94B60996003688A60013351600861D5
:1021F000036030BD02695368F3E7C0460369416874
:1022000082688A6051605968814206D0002202616A
:102210001A68013A1A60186870475A60F6E7C046B3
:10222000F0B5DE464E4657464546E0B585B0060059
:1022300001F0E4FC4523F45C64B2002C21DD213B79
:10224000994621339A46B14409E0AB6BEA6B039699
:10225000934245D3013CE3B264B2002B11D0B56C7C
:10226000002DF2D1736A002B0BD0484601F026FAFC
:102270000028EFD001F0BEFB013CE3B264B2002BBA
:10228000EDD14523FF22F25402F0C6FA01F0B6FC6C
:102290004423F45C64B2002C16DD3500103504E0F4
:1022A000013CE2B264B2002A0ED03369002B0BD09D
:1022B000280001F003FA0028F2D0013C01F09AFB5B
:1022C000E2B264B2002AF0D14423FF22F25402F0B9
:1022D000A3FA05B0F0BCBB46B246A946A046F0BD85
:1022E00053462A6CEF5CAB6B7FB29846002A14D140
:1022F0002B680193002B2BD000239B4643460133D0
:10230000AB637B1C18D0534601377FB2EF545B465A
:10231000002B9FD001F06EFBAEE7686803A9FFF7C2
:10232000F5FA2A6C6B689446AA6863446B60934222
:10233000E2D32B686B60DFE76B6A002BE7D02800E5
:10234000243001F0BBF90028E1D001F053FB93E702
:10235000A86801F00DFC019B8346AB60CEE7C04648
:10236000F0B5C64600B5846C82B0A36BE26B002664
:102370000190934204D3300002B080BCB846F0BD57
:102380004523226CE55CA76B6DB2002A16D060680D
:1023900001A9FFF7BBFA226C63689446A268634404
:1023A000636093420ED3236863600137A7636B1C9D
:1023B0000DD0452301356DB2E554DCE7236898461E
:1023C000002B0FD001370026A7636B1CF1D1636A85
:1023D000002BD0D02000243001F070F90028CAD0A2
:1023E0000126C8E7A06801F0C3FB43460600A360CE
:1023F000DBE7C046F8B506000800704354300D0016
:10240000170002F0B7FC041E25D00300002D24D1D4
:1024100023602564E66301F0F1FB226CE36B216825
:102420005343C8189B1ACB18E3600025FF234422AE
:10243000A06020006160A563A3540132A354103052
:10244000FFF7A8FE20002430FFF7A4FE02F0E4F915
:102450005023E754A5642000F8BD5433D8E7C046A4
:10246000F0B5CE46474604001E00002380B585B077
:1024700099460192884601F0C1FBA36BE26B0027ED
:102480004425934237D3022E72D0019B002B00D1FA
:102490008AE0002F68D002F0BFF900F0FBFE01F0E7
:1024A000ADFB625D52B2531C01D14B4663554523CF
:1024B000E25C52B2013201D14A46E25402F0ACF978
:1024C00001A902A801F0A6F9002800D074E001F0EB
:1024D00095FBA36BE26B934234D002F09DF9200090
:1024E000FFF79EFE01F0A4FF012701F087FBA36B1D
:1024F000E26B9342C7D2226CA76BA56B002A3CD03B
:102500004146002E00D084E06068FFF7FFF9226C9E
:1025100063689446A26863446360934201D323686E
:102520006360A36C0135A563002B34D1636A002B73
:1025300036D02000243001F0C1F8002830D001F05E
:1025400043FB2DE002F068F920000199103000F003
:10255000A1FF2000FFF764FE01F06AFF0028C3D14D
:1025600001F032FB0127C0E702A801F047F992E72A
:10257000226CA76BA56B002A25D123680020984602
:10258000002B40D0A36C0135A563002B35D0022E63
:1025900001D1002F04D12000FFF7E2FE0028CED1A8
:1025A00002F03AF9012002E002F036F9002005B00D
:1025B000C0BCB946B046F0BD2000FFF731FE01F0C7
:1025C00037FF0020F3E74146E068FFF79FF9E16835
:1025D000236C5A42CB1A2168E3608B4205D2A36870
:1025E0009C466244E260022E9BD1002D00D1013551
:1025F000A36CA563002BCCD198E7636A002B98D11C
:1026000000289CD1CCE7A06801F0B2FA4346A36051
:10261000B8E7E068FFF77AF9E168236C5A42CB1A11
:102620002168E3608B42DED2D9E7C046F8B54E465A
:102630004546DE4657460400E0B5884691461D00F3
:10264000EFF3108772B601F0D9FAA36BE26B9342F5
:1026500026D3022D0BD0002402F0DEF887F3108879
:102660002000F0BCBB46B246A946A046F8BD4523B3
:10267000E65CA36B226C9B46A36B76B29A46002A5B
:1026800029D123689846002B61D053460133A363B8
:10269000731C37D04523013676B2E6540124DBE7BC
:1026A0004523E65CA36B226C9B46A36B76B29A46ED
:1026B000002AE6D0002D0ED141466068FFF726F9CA
:1026C000226C63689446A268634463609342DCD3DF
:1026D00023686360D9E74146E068FFF717F9E168CE
:1026E000236C5A42CB1A2168E3608B4203D2A36861
:1026F0009C466244E2605346022D24D00133A3631A
:10270000731CC7D1A36C002B13D0022D04D15B46E0
:10271000002B01D001249FE72000FFF721FE0028B5
:10272000F8D04B46002BF5D001234A460124136014
:1027300092E7636A002BEDD02000243000F0BEFF4A
:102740000028EED1E6E7002BA1D10133D7E7A0683E
:1027500001F00EFA4346A3605346013397E7C046A3
:10276000F0B54746CE46040080B585B08846019254
:1027700001F044FAA76B002F5ED1019B002B3BD0E8
:1027800002A801F03BF8002344269946452502F0B3
:1027900043F800F07FFD01F031FAA35D5BB2013335
:1027A00001D14B46A355635D5BB2013301D14B466A
:1027B000635502F031F801A902A801F02BF80028B6
:1027C00022D101F01BFAA36B002B2AD102F024F8CE
:1027D00020000199243000F05DFE2000FFF720FD6D
:1027E00001F026FE002824D001F008FAA76B002F84
:1027F00022D1019B002BCAD102F00EF8002005B0B7
:10280000C0BCB946B046F0BD2000FFF709FD01F09D
:102810000FFE01F0F3F9A36B002BEDD001F0FCFFEC
:10282000E2E701F0F9FF2000FFF7FAFC01F000FEFB
:10283000DAE701F0C9F9D7E7226C002A08D0E3688B
:102840009918A368E16099420BD24046FFF75EF801
:10285000013FA7632369002B06D101F0DDFF0120B2
:10286000CDE72168E160F0E72000103000F026FF9E
:102870000028F2D001F0A8F9EFE7C046164B1A681D
:10288000002A15D09A68002A18D01A69002A17D091
:102890009A69002A16D01A6A002A15D09A6A002A64
:1028A00014D01A6B002A13D09A6B002A12D07047EA
:1028B0000022D20099509B185860F8E70122F8E7EF
:1028C0000222F6E70322F4E70422F2E70522F0E70A
:1028D0000622EEE70732ECE76005002070B5040041
:1028E00016000D0001F08AF94422A35C5BB20133AB
:1028F00001D10023A3544522A35C5BB2013301D173
:102900000023A35401F088FFA36B002B03D0200009
:10291000FFF786FC70BD200032002900243000F053
:102920004DFEF4E710B5FFF7E9F9034C2368022BDD
:10293000FCD9FFF7E3F9F9E770060020F0B5C646C9
:10294000304B00B5040088461E68EFF3108172B664
:10295000D0273F063B682C4D9B00EA5881F3108836
:102960007D230021D154EFF3108272B63B689B00A7
:10297000E85882F310880830FFF740FC631C30D021
:102980003419EFF3108172B6D022120613689B003F
:10299000EB5881F310889C60A64214D81B4B186832
:1029A000EFF3108672B613689B00E95886F310881F
:1029B0000831FFF70BFC164B1A68A24200D91C60C5
:1029C00080BCB846F0BD134B1868EFF3108472B6A4
:1029D00013689B00E95884F310880831FFF7F6FB71
:1029E000EEE74346002BCBD0EFF3108272B63B6884
:1029F0009B00E95882F3108807480831FFF7DAFB9B
:102A0000DEE7C046FC0902205406002060060020D4
:102A1000A009022068060020D4090220F0B557461C
:102A20004E464546DE46E0B58E4B83B001931B68AB
:102A300001269C4662469B009F18BD00010086400F
:102A4000009089482A0080468848AA460832864D68
:102A5000634442449B0080468348EB580430012481
:102A600081468900002B00D179E054464B461B5922
:102A7000B3469C682700A24206D17FE07C480D58EF
:102A80009D4241D0A74253D0646894423AD0E36853
:102A90009D6B6E1CF2D158465E680642F2D00099DA
:102AA000734A574691468A0092464A465046125803
:102AB0005E4695634A461258996393464A461350B8
:102AC0002000FFF79BFB684B38009C4621006044C8
:102AD000FFF770FB43461B685B46002B26D0624A1B
:102AE0001F6B94465A46BB00DB199B0092696344F6
:102AF00001209A4249D003B0F0BCBB46B246A94679
:102B0000A046F0BD6468C2E758466B680342B9D07E
:102B1000009B2000AB63FFF771FB534B50469C4674
:102B200021006044FFF746FB43461B680120E2E7B3
:102B300043461C685E46002C1BD0002401235B42E8
:102B40009B46133BDC44D2189B4663469B00464D94
:102B500063449B00EB58DA44002B00D085E7002C3F
:102B60000ED001980368013B036043461B68002BAD
:102B7000E4D16346002BE1D10020BCE7976883E7EE
:102B800043461B68002BD9D1F3E75B465A465B6886
:102B9000D26BBF1A334204D04A465146525852684B
:102BA0009343032214001C401A42BFD01F239846AF
:102BB000304B01269A4601E0002C21D02000FEF780
:102BC00091FD4346181A330083409C434B468100D5
:102BD0005A585B58126BDB6BD31A9F42ECDD4A46A6
:102BE0005258926B002AE7DB4A465258926B012AF0
:102BF000E2DC52468A58002ADED105001F00DBE7DE
:102C00000120012D00D976E7EFF30583DBB2002B1D
:102C100015D0D0231B061B689D421FD04B46AC002D
:102C20001B599B6B023300D165E72800FFF78AF838
:102C30004B4602221B59524201209A635BE74B46E6
:102C4000AC001B599B6B023300D154E7D0231B0609
:102C50001B689D42E9D1074B18514CE7054BAD006D
:102C6000E85048E73009022070060020C809022019
:102C700054060020080A022010B5EFF3108C72B63B
:102C8000D02109060B68274A9B0098588CF31088BE
:102C9000036D013B0365EFF3108072B609688B008A
:102CA0009B5880F310881B6D002B36D11E4A137879
:102CB000013BDBB21370002B08D101201B4C635C7D
:102CC00083436354BFF35F8F194B1860EFF30583A1
:102CD000DBB2002B21D1D0231B0619685378013BAE
:102CE000DBB25370002B09D10220104A535C83439E
:102CF0005354BFF35F8F01220E4B1A60FFF70AF89F
:102D0000EFF3108272B6D0231B061B680A499B00A2
:102D10005B5882F31088002B00D110BDFEF7EEFF48
:102D2000FBE7C046540600201409022010090220C7
:102D3000380100D03C0100D0080A0220F8B5D023A9
:102D40005746DE4645464E461B061B68584A9B00C2
:102D5000D358E0B59846574B574F9A46574B9B462A
:102D600059E042461365D023524D1B061A682B7852
:102D7000524C013BDBB22B70002B07D10121A35C2D
:102D80008B43A354BFF35F8F4D4B1960D0231B06B9
:102D90001A686B78013BDBB26B70002B08D1022103
:102DA000A35C8B43A354BFF35F8F0122454B1A6092
:102DB000FEF7B0FFEFF3108372B6D0231B061A683C
:102DC000404B196800294ED0BFF35F8F01230221C9
:102DD0006B70A35C0B43A354D0231B061A68384BBB
:102DE0001968002938D0BFF35F8F012301212B70B0
:102DF000A35C0B43A354EFF3108172B6D0221206EA
:102E000013682B489B00C35881F310881E654B46FE
:102E10003B60002E34D043469B6B02332AD143469D
:102E20001E6D3B68994600233B60002E99D1D0234C
:102E300055461B061A686B785C46013BDBB26B702B
:102E4000002BB5D10221A35C8B43A354BFF35F8F4A
:102E500001221C4B1A60ABE7A15CC90720D419689A
:102E60000029C0D1FBE7A15C89071DD4196800299E
:102E7000AAD1FBE7F0BCBB46B246A946A046F8BDC6
:102E80002B781268013BDBB22B70002BC3D10121E0
:102E9000A35C8B43A354BFF35F8F094B1960BAE760
:102EA0002B7801332B70A6E76B7801336B7093E7B7
:102EB00054060020140902202809022010090220CB
:102EC000380100D03C0100D070B5EFF3108472B629
:102ED000D023364A1B0618681368002B45D0344BA4
:102EE000BFF35F8F01210225324A5170195C2943DB
:102EF0001954D02530492D060E682868002E3CD084
:102F0000BFF35F8F012101251170195C294319540A
:102F10002A490025086801300860D02000060068B2
:102F2000157001251A5CAA431A54BFF35F8F224B18
:102F30001D600B68012B02D084F3108870BDEFF385
:102F4000108272B6D0231B061B681D499B005B587C
:102F500082F310881B6D002BEED1EFF30583DBB2FB
:102F6000002BE9D1FFF7EAFEE6E7114B195C890770
:102F70000AD411680029B3D1FBE71E5CF60708D418
:102F80000D68002DBCD1FBE70A4A51780131517020
:102F9000AFE71678711C11700849086801300860A5
:102FA00028681670002EC4D1BBE7C0463C0100D093
:102FB0001009022014090220380100D0280902203B
:102FC00054060020F8B5DE4657464E464546E0B565
:102FD000FEF794FE6C4BD0279B466C4B6C4E99468B
:102FE0006C4B6D4C9A466D4B3F0698462368002B00
:102FF0006FD0EFF3108372B63368002B3AD0EFF343
:10300000108172B658463B689A00825881F3108846
:10301000126D002A12D1EFF30582D2B2002A67D0D6
:103020005F4A1268002A77D0BFF35F8F01215D4AA3
:1030300011705D4AD25C0A435B49CA54EFF31081B8
:1030400072B65A463B689B00D25881F31088136DC4
:10305000013313654B461B68002B0BD1EFF3108235
:1030600072B659463B689B00CB5882F310881B6DA3
:10307000012B35D02368002B17D05346DB68DD6861
:10308000AB6B013353D128000830FFF7B7F8434644
:1030900042461B68686B013B13602368013B236059
:1030A00001F01EFF280001F01BFF3368002B9DD0AC
:1030B000EFF3108272B659463B689B00CB5882F3FF
:1030C00010881B6D002B91D0FFF7D6FD2368002BD5
:1030D0008FD1364B1B68022B88D9FEF70FFE85E790
:1030E000EFF30583DBB2002BC4D1FFF727FEC1E766
:1030F0002F4A1168002937D0BFF35F8F0121294A79
:1031000051700221284AD25C0A432749CA54244AF2
:103110003B681268002A87D10121234AD25C114200
:103120001CD11F4A1268002A00D07DE7F9E73368F6
:10313000002BCED0EFF3108272B659463B689B004D
:10314000CB5882F310881B6D002BC2D0FFF794FD83
:10315000164B1B68022B00D848E7BEE7114B114AFB
:103160001B780133137069E70F49C95C890703D4E1
:1031700011680029C0D1FBE70A4B0A4A5B7801338A
:1031800053703B684CE7C0465406002028090220D3
:10319000C8090220E809022024090220200902208F
:1031A000380100D014090220100902207006002006
:1031B0003C0100D04A425141F8B5344C036B2668BB
:1031C000256822685B1A926B012A06D965686668D1
:1031D0006268926B012A14D9F8BD2D4A1168002942
:1031E000F4D1376BED6B7F1BBB42EFDB4568ED071E
:1031F000ECD56568666863689B6B012B3CD9002041
:1032000010E0234A51680029E6D1012149428C4649
:10321000296BF56B491B99421BDD6346012BDBD8FB
:1032200000210020EFF30583DBB2002B17D0D02361
:103230001B061B68834225D08D0063599B6B0233AC
:10324000CAD00800FEF77EFD0222635952429A63FB
:10325000C2E743689B07E0D501210120E2E78D002A
:1032600063599B6B0233B7D0D0231B061B68834284
:10327000E7D101235351AFE753689C46002BBED1E1
:103280003B00C5E7012389005350A5E75406002001
:10329000080A02203A4B70B51B68002B00D170BDA4
:1032A000EFF3108472B6D023364A1B0618681368F1
:1032B000002B45D0344BBFF35F8F01210225334AE9
:1032C0005170195C29431954D02531492D060E68D7
:1032D0002868002E3CD0BFF35F8F012101251170BB
:1032E000195C294319542B490025086801300860EE
:1032F000D02000060068157001251A5CAA431A54F4
:10330000BFF35F8F224B1D600B68012B02D084F34B
:103310001088C4E7EFF3108272B6D0231B061B6837
:103320001D499B005B5882F310881B6D002BEED16A
:10333000EFF30583DBB2002BE9D1FFF7FFFCE6E7F3
:10334000114B195C89070AD411680029B3D1FBE736
:103350001E5CF60708D40D68002DBCD1FBE70B4AB4
:10336000517801315170AFE71678711C117009491D
:1033700008680130086028681670002EC4D1BBE7C9
:10338000C80902203C0100D01009022014090220C3
:10339000380100D02809022054060020014B18688B
:1033A0007047C046FC090220D0231B061A68334B25
:1033B00070B51968324D002950D0BFF35F8F0123DB
:1033C0000221304C6370AB5C0B43AB54D0231B0623
:1033D0001A682D4B1968002939D0BFF35F8F01237C
:1033E00001212370AB5C0B43AB54284B1B68002BB3
:1033F00027D00122264B8000C250D0231B061A681A
:103400002378013BDBB22370002B07D10121AB5C99
:103410008B43AB54BFF35F8F1B4B1960D0231B064C
:103420001A686378013BDBB26370002B08D102217C
:10343000AB5C8B43AB54BFF35F8F01220F4B1A6021
:1034400070BD134A81008B50FFF7E8FAD5E7A95CFD
:10345000C9070AD419680029BFD1FBE7A95C89070D
:1034600007D419680029A8D1FBE72378013323701A
:10347000BBE7044C637801336370A7E73C0100D0DD
:103480001009022014090220380100D02809022066
:10349000080A0220F8B50C00EFF3108272B6D026AD
:1034A000360633682D4D9B00595982F310881C3124
:1034B000FEF78CFE2A4B1F68EFF3108172B633685B
:1034C0009B005A5981F310887D230021D154EFF3DA
:1034D000108272B633689B00585982F31088083006
:1034E000FEF78CFE631C2CD0E419EFF3108272B649
:1034F00033689B005B5982F310889C60A7420DD90A
:10350000184B1868EFF3108272B633689B00595954
:1035100082F310880831FEF759FEF8BD124B186887
:10352000EFF3108272B633689B00595982F310880A
:103530000831FEF74BFE0D4B1A689442EDD21C6029
:10354000EBE7EFF3108272B633689B00595982F3B0
:10355000108807480831FEF72DFEDEE754060020EC
:10356000FC0902206806002060060020A009022055
:10357000D409022070B50B001400EFF3108172B66D
:10358000D026360632680C4D9200525981F31088CD
:10359000802109061943D161EFF3108272B63368B6
:1035A0009B00595982F310881C31FEF703FE01215C
:1035B0002000FFF7C3F970BD54060020F0B5C646E1
:1035C0000C0000B51600EFF3108272B6D0231B0674
:1035D0001B68344D9B00E95882F310881C31FEF7BC
:1035E000E9FD002E01D0012464422F4B1B68984650
:1035F000EFF3108172B6D0273F063B689B00EA5874
:1036000081F310887D230021D154EFF3108272B62C
:103610003B689B00E85882F310880830FEF7EEFD07
:10362000631C30D04444EFF3108172B6D0221206EE
:1036300013689B00EB5881F310889C60A04514D858
:103640001A4B1868EFF3108672B613689B00E9589E
:1036500086F310880831FEF7B9FD154B1A689442BD
:1036600000D21C6080BCB846F0BD124B1868EFF366
:10367000108472B613689B00E95884F310880831EF
:10368000FEF7A4FDEEE7002ECCD0EFF3108272B669
:103690003B689B00E95882F3108807480831FEF721
:1036A00089FDDFE754060020FC09022060060020A7
:1036B000A009022068060020D4090220F8B5C368DA
:1036C000DD682C001C342000FEF798FD454B1B687C
:1036D000002B28D1143C2000FEF790FD424A2B6BB2
:1036E00011688B4224D89800C018404B80002100FC
:1036F000C018FEF75FFD3E4C2B6B276821682268DF
:103700003C4E926B013B012A14D96168676862687C
:10371000926B012A21D9D0231B061B689B00F0580D
:10372000431E9841F8BD21003348FEF743FDE2E710
:103730001360D8E730680028E7D13A6BC96B521A9A
:103740009342E2DB6968C907DFD56168676863682F
:103750009B6B012B3BD900220FE07268002ADAD163
:103760000122524294460A6BF96B521A9A421ADDB0
:10377000634600200022012BCDD8EFF30583DBB296
:10378000002B16D0D02109060B68934225D0850066
:103790006259926B0232C1D0FEF7D4FA0222635909
:1037A00052429A63B7E76B689B07E1D5012001227B
:1037B000E3E7850063599B6B0233ACD0D0231B0633
:1037C00019689142E8D1012272511B68A6E773681B
:1037D0009C46002BBFD11300C5E701238000335066
:1037E0000B689BE7280902203009022070060020A0
:1037F00054060020080A0220B4090220034B1B686B
:103800000360034B1B6843607047C046A409022055
:10381000FC090220F0B5D6464F46464604008A46CB
:10382000C0B5EFF3108372B6694F3B68002B47D1E8
:10383000684D69490B68984663689946EFF3108CA8
:1038400072B6D022120613689B00E8588CF31088D9
:103850007D23C05C002822D0EFF3108172B612687D
:103860009200AA5881F3108800210124D1543B68AA
:10387000002B0ED0EFF3108272B6D0231B061B680C
:103880009B00EB5882F310881B6D002B01D0FFF7D3
:10389000F3F92000E0BCBA46B146A846F0BD534655
:1038A0001B685A1C64D04D4A2668106886424FD067
:1038B000606840454CD80023524601241360D6E787
:1038C000EFF3108072B6D02212061368414D9900B2
:1038D000695880F31088096D002912D1EFF3058132
:1038E000C9B2002946D03E493E483F4A1668002EDC
:1038F00054D0BFF35F8F012202700120CA5C0243E3
:10390000CA54EFF3108072B6D02109060B689B00F1
:10391000EA5880F31088136D01331365334B1B682D
:10392000002B00D085E7EFF3108272B60B689B0086
:10393000EB5882F310881B6D012B00D079E7EFF371
:103940000583DBB2002B00D073E7FFF7F7F970E7D0
:1039500040464E46801B8342ADD940461B1A504616
:103960004B440360136823600B68636000247EE7A8
:1039700000247CE71E48016800291AD01849BFF3CB
:103980005F8F0226B4460122664616484270CA5C22
:103990003243CA54D0231B061B68A6E7CE5CF60749
:1039A00003D41668002EA4D1FBE70378013303701B
:1039B000A7E70B49CE5CB60703D40268002ADED124
:1039C000FBE7084843780133437013688DE7C0462E
:1039D000C809022054060020FC090220A409022084
:1039E0001009022014090220380100D02809022001
:1039F0003C0100D0D02301211B061B68014A9B001B
:103A000099507047080A0220EFF3108272B6D02353
:103A10001B061B6802499B00585882F310887047A8
:103A20005406002070B54B4D01242B68002B01D1AA
:103A3000200070BDEFF3108372B62B68002B44D0CA
:103A4000EFF3108472B6D02109060B68424A980041
:103A5000105884F31088006D002812D1EFF3058010
:103A6000C0B200284AD03D483D4C3E490E68002E69
:103A700056D0BFF35F8F012121700124C15C214327
:103A8000C154EFF3108472B6D020000603689B0087
:103A9000D15884F310880B6D334C01330B652368C8
:103AA000002B13D1EFF3108172B603689B00D3583B
:103AB00081F310881B6D012B08D1EFF30583DBB276
:103AC000002B03D1FFF73AF900E0274C246863424A
:103AD0005C412B686400002BAAD0EFF3108272B611
:103AE000D0231B061B681C499B005B5882F310887F
:103AF0001B6D002B9CD0FFF7BFF899E71B4C20688B
:103B0000002818D01548BFF35F8F01210226144CFE
:103B10006170C15C3143C154D0231B061B68A4E70C
:103B2000C65CF60703D40E68002EA2D1FBE723780B
:103B300001332370A5E70948C65CB60703D42168A2
:103B40000029E0D1FBE7064C6378013363700B6812
:103B50008BE7C046C8090220540600201009022045
:103B600014090220380100D0280902203C0100D0AD
:103B700070B5041E08D0036E026BC16D013B036675
:103B80008A4201D0002B01D0002070BD050008350D
:103B90002800FEF733FB2022E36DD21AE261084AC7
:103BA000236311688B4200D913609800C018054B3D
:103BB0008000C0182900FEF7FDFA0120E5E7C046A5
:103BC000300902207006002010B5EFF3108172B6A4
:103BD000D0231B061B68074A9B009A5881F3108864
:103BE000126D002A03D00121034A995010BDFEF73F
:103BF00085F8FBE754060020080A022070B5EFF3B1
:103C0000108372B63A4B1B68002B3CD0EFF3108C3C
:103C100072B6D02109060B68364A980010588CF30A
:103C20001088006D002812D1EFF30580C0B2002883
:103C300032D03148314C32490D68002D3ED0BFF3AF
:103C40005F8F012121700124C15C2143C154EFF336
:103C5000108C72B6D020000603689B00D1588CF3FC
:103C600010880B6D01330B65264B1B68002B0AD1A6
:103C7000EFF3108172B603689B00D35881F310886C
:103C80001B6D012B00D070BDEFF30583DBB2002B61
:103C9000F9D1FFF753F8F6E71B4C2068002818D03D
:103CA0001548BFF35F8F01210225144C6170C15C80
:103CB0002943C154D0231B061B68BCE7C55CED0734
:103CC00003D40D68002DBAD1FBE7237801332370AC
:103CD000BDE70948C55CAD0703D421680029E0D1E0
:103CE000FBE7064C6378013363700B68A3E7C046BB
:103CF000C8090220540600201009022014090220DD
:103D0000380100D0280902203C0100D0F0B54E4611
:103D10004546DE465746E0B59600804683B0300003
:103D20000D00994601F026F8071E00D1ECE0802036
:103D300001F020F8041E00D1F1E047633200A52114
:103D40003800FDF7DDFD636B0193002D00D109E123
:103D500040232A78E2542B78002B56D041236A78EE
:103D6000E2546B78002B50D04223AA78E254AB780F
:103D7000002B4AD04323EA78E254EB78002B44D05E
:103D800044232A79E2542B79002B3ED045236A79CB
:103D9000E2546B79002B38D04623AA79E254AB79F0
:103DA000002B32D04723EA79E254EB79002B2CD058
:103DB00048232A7AE2542B7A002B26D049236A7AA8
:103DC000E2546B7A002B20D04A23AA7AE254AB7AD1
:103DD000002B1AD04B23EA7AE254EB7A002B14D052
:103DE0004C232A7BE2542B7B002B0ED04D236A7B85
:103DF000E2546B7B002B08D04E23AA7BE254AB7BB2
:103E0000002B02D04F23EA7BE2544F230022E254DE
:103E10000C9F1F2F00D980E008239A460025A2445A
:103E200050462763E7652566FEF7C0F920001C3081
:103E3000FEF7BCF920232000DB1BE36114220021E4
:103E40006461A46225656430FDF75AFD20000422F8
:103E500000217830FDF754FD23007C331D707D2355
:103E6000E5547E3B9B466360019B301F9C460723C5
:103E7000604498434A464146FDF730FF5B46A363E2
:103E80004B4B2060984550D04A4B98454DD0E56348
:103E90000E9B002B00D01C600D9B6360FFF7AEFEF5
:103EA000454A464F1368013313603B689946002B1F
:103EB0003ED0434E434A136801331360424A636560
:103EC0001168236B8B4200D913609800C0188000E2
:103ED00051463018FEF76EF93B68002B3DD13B6828
:103EE000002B0FD0EFF3108272B6D0231B061B6895
:103EF00036499B005B5882F310881B6D002B01D064
:103F0000FEF7BAFE012001E00120404203B0F0BC00
:103F1000BB46B246A946A046F0BD1F277CE7380045
:103F200000F0DEFF01204042F0E70123E363AFE74A
:103F30001368234E012B18D0E36B002BBAD0234A11
:103F40001368002B04D05368002BB3D1013399467A
:103F50004B46A3639B00D450ACE700212000FFF741
:103F600029F9BCE74023E55452E7A0239B0098467B
:103F70003500B04428001435FEF70CF94545F9D159
:103F8000134B98461800FEF705F9124D2800FEF76E
:103F900001F91148FEF7FEF81048FEF7FBF810484B
:103FA000FEF7F8F842460F4B1A600F4B1D60C3E74F
:103FB000C52F00102529001020090220C809022061
:103FC000700600202C09022030090220540600202F
:103FD0006009022074090220B4090220E8090220C5
:103FE000D40902206006002068060020F0B5D646FD
:103FF0004F464646C0B588B000F0CEFD234B0124A5
:104000009946234B234F9A4604AD234B0026049335
:1040100023002F332B716E71012C19D03B1D02939D
:10402000012380225B4298460193290000234846E1
:1040300000965200FFF76AFE022C15D1012817D016
:10404000164B1B6808B0E0BCBA46B146A846F0BDA6
:10405000012380225B4201932900002350460297EE
:1040600000965200FFF752FE01340028CDD1E7E759
:10407000EFF3108372B64246094B1A60094B186081
:10408000094B1E60FDF7DAFEDAE7C046252900106D
:10409000C52F00109009022049444C4534020020ED
:1040A000A0090220C8090220FC090220F0B5DE4662
:1040B000454657464E46E0B583B008220021684683
:1040C000FDF71EFCFFF79AFD7C4B1D68002D5DD1AE
:1040D0007B4B1F6801371F60002F00D177E0794BC1
:1040E0009B465B461B68BB4200D889E0764B9946ED
:1040F000764F3B681A6B93009B184A469B00D25838
:1041000079680123086B934292418100091848465F
:104110008900415852428B429B416D495B4288461F
:104120000968002900D00122009242465268002A04
:1041300000D001230193D0231B0699461B686C46CF
:104140009A4600262368002B1BD0554500D1A7E0D6
:10415000EFF30583DBB2002B00D189E04B461B68EF
:104160009D4200D1A5E0AB009B46FB589B6B023300
:1041700007D02800FDF7E6FD5B460222FB585242BD
:104180009A630434012D06D00125DBE70026514A4D
:10419000136801331360504B1B68002B0FD0EFF3F3
:1041A000108272B6D0231B061B6848499B005B58DF
:1041B00082F310881B6D002B01D0FEF75DFD3000EF
:1041C00003B0F0BCBB46B246A946A046F0BD434B87
:1041D000434A196810681860116042490A68013240
:1041E0000A601A681268002A53D1364B9B46012395
:1041F0005A465B4213605B461B68BB4200D975E7B9
:10420000364B98461B681B68002B4BD02E4B9946AB
:10421000354B9A4622E0260008363000FDF7EEFFC7
:10422000E36A002B03D020001C30FDF7E7FF534664
:10423000206B1B68984201D95346186083001818F8
:10424000800031004844FDF7B5FF01212000FEF752
:10425000B1FF43461B681B68002B25D043461B68F3
:10426000DB68DC68A3689F42D5D25A4613603FE7FB
:10427000AB009B46FB589B6B023300D181E74B465A
:104280001B689D4200D074E743465A46012199506D
:1042900077E71B680B4ADB6893461B68136020E7CF
:1042A00001266EE7084B994601235A465B4213608C
:1042B0001EE742460121AB00D15062E728090220E7
:1042C000FC090220A00902207006002054060020EC
:1042D000080A0220B0090220C80902206006002056
:1042E00068060020A409022030090220F8B5CE4655
:1042F000474680B5FFF782FCD02109060B683E4A8D
:1043000099461368013B136008683C494B78013BB0
:10431000DBB24B70002B09D1022439490B5CA3435B
:104320000B54BFF35F8F0121364B196013680024D3
:10433000002B42D1344B1B68002B3ED0334D2B68F1
:10434000002B24D0324B334E9846EB68DF683800A0
:104350003C001C300834FDF751FF2000FDF74EFFF4
:10436000386B3368984200D9306083001818800099
:1043700021004044FDF71EFF2B68002BE5D1264BA2
:104380001A681268002A31D1244B013A1A60244B72
:10439000244D98461C684B469F00002C0AD00126ED
:1043A000FFF784FE002800D0EE51013C002CF7D12D
:1043B00043461C60EC59631E9C411B4B1B68002B41
:1043C0000FD0EFF3108272B6D0231B061B6817497B
:1043D0009B005B5882F310881B6D002B01D0FEF709
:1043E0004BFC2000C0BCB946B046F8BD1B68DB687A
:1043F0001A680A4B1A60CAE7280902201409022029
:10440000100902203C0100D020090220B40902203A
:10441000700600203009022060060020A00902205A
:10442000B0090220080A0220C80902205406002010
:10443000044B10B51868002800D110BDFFF756FFD7
:10444000FBE7C046C809022070B5041E0AD0174D0C
:104450002B68002B1DD100212000FEF76FFA2B687E
:10446000002B11D1EFF3108172B6D0231B061B680D
:104470000F4A9B009A5881F31088126D002A12D0BF
:1044800001210C4A995070BDFFF730FF0028E9D098
:10449000F9E7FEF719FD00212000FEF74FFA2B681F
:1044A000002BDFD0F0E7FDF729FCECE7C80902207C
:1044B00054060020080A022070B58023C4681B0639
:1044C00025000B4303600835FDF798FE2800FDF733
:1044D00095FE144A236B11688B4200D91360980033
:1044E000C018114B8000C0182900FDF763FEFFF7CC
:1044F00085FB00212000FEF75DFE0C4B1B68002BA6
:104500000FD0EFF3108272B6D0231B061B68084948
:104510009B005B5882F310881B6D002B01D0FEF7C7
:10452000ABFB70BD3009022070060020C8090220D4
:1045300054060020F0B54E464546DE465746E0B5E7
:104540009600804683B030000D00994600F012FCC2
:10455000071E00D1EDE0802000F00CFC041E00D10D
:10456000F2E047633200A5213800FDF7C9F9636B1B
:104570000193002D00D10AE140232A78E2542B78E0
:10458000002B56D041236A78E2546B78002B50D030
:104590004223AA78E254AB78002B4AD04323EA782E
:1045A000E254EB78002B44D044232A79E2542B794F
:1045B000002B3ED045236A79E2546B79002B38D02A
:1045C0004623AA79E254AB79002B32D04723EA790B
:1045D000E254EB79002B2CD048232A7AE2542B7A30
:1045E000002B26D049236A7AE2546B7A002B20D024
:1045F0004A23AA7AE254AB7A002B1AD04B23EA7AE8
:10460000E254EB7A002B14D04C232A7BE2542B7B10
:10461000002B0ED04D236A7BE2546B7B002B08D01D
:104620004E23AA7BE254AB7B002B02D04F23EA7BC4
:10463000E2544F230022E2540C9F1F2F00D981E047
:1046400008239A460025A24450462763E76525665D
:10465000FDF7ACFD20001C30FDF7A8FD2023200055
:10466000DB1BE361142200216461A46225656430D0
:10467000FDF746F92000042200217830FDF740F9CB
:1046800023007C331D707D23E5547E3B9B46636095
:10469000019B301F9C460723604498434A4641468D
:1046A000FDF71CFB5B46A3634C4B2060984551D043
:1046B0004B4B98454ED0E5630D9B002B00D01C6002
:1046C00001235B426360FFF799FA464A464F13683D
:1046D000013313603B689946002B3ED0434E444A59
:1046E000136801331360434A63651168236B8B427F
:1046F00000D913609800C018800051463018FDF7AB
:1047000059FD3B68002B3DD13B68002B0FD0EFF3E8
:10471000108272B6D0231B061B6837499B005B587A
:1047200082F310881B6D002B01D0FEF7A5FA012043
:1047300001E00120404203B0F0BCBB46B246A946AE
:10474000A046F0BD1F277BE7380000F0C9FB012021
:104750004042F0E70123E363AEE71368234E012BE9
:1047600018D0E36B002BBAD0234A1368002B04D077
:104770005368002BB3D1013399464B46A3639B008A
:10478000D450ACE700212000FEF714FDBCE7402325
:10479000E55451E7A0239B0098463500B04428001B
:1047A0001435FDF7F7FC4545F9D1144B9846180030
:1047B000FDF7F0FC124D2800FDF7ECFC1148FDF769
:1047C000E9FC1148FDF7E6FC1048FDF7E3FC424622
:1047D0000F4B1A600F4B1D60C3E7C046C52F00107A
:1047E0002529001020090220C80902207006002097
:1047F0002C09022030090220540600206009022002
:1048000074090220B4090220E8090220D409022018
:1048100060060020680600200A4B10B51B68002BBC
:104820000FD0EFF3108272B6D0231B061B68064927
:104830009B005B5882F310881B6D002B01D0FEF7A4
:104840001BFA10BDC80902205406002010B5EFF372
:10485000108072B6D02109060B680D4A9B009B5848
:1048600080F31088D869EFF3108472B60B689B0050
:104870009B5884F310881C6BEFF3108372B60968A1
:1048800089008A5883F3108820231B1BD36110BD35
:10489000540600202823F0B54F464646D646994692
:1048A000204BC0B59846204D84B004260EE0DB684E
:1048B000DC681A68271D38009246FDF79FFC236AC2
:1048C000200098474B46E35C1E420DD12B681A68C6
:1048D000002AECD1154A11681360296004B0E0BCCD
:1048E000BA46B146A846F0BDA36953449A4512D3CF
:1048F00043461B68002BD8D00023009353460294F4
:104900000193FFF78FF840460023002269460068B4
:10491000FDF7A6FDC9E73900286863602461FDF74B
:1049200055FCC2E7000A02205C0600206C0600204D
:10493000944BF0B54E469946934BDE469B46282352
:10494000454657469846E0B5904C914E8DB04B4643
:104950001B681F68002F00D1A3E0DB681F68FEF70B
:1049600099FCFEF71BFD33680500834200D9B2E0D5
:104970003060874200D8C2E000222068791BFDF732
:10498000ADFFFFF755FD002800D1A1E002239A46B4
:104990002068002204A9FDF7E3FE0028D7D0049B7D
:1049A0000193002B6EDB069D6B69002B02D0281D46
:1049B000FDF724FCFEF7F2FC33680700984200D2B2
:1049C0008FE0049B3760092B41D8724A9B00D35873
:1049D0009F4643460122EB5C13434246AB54A96910
:1049E000059B2D615A186A60BA427DD8FB1A99421C
:1049F00041D828002B6A984743460422EB5C206884
:104A00001A42C6D00028C4D00022059B0193AB698E
:104A10000892019A0A95944663440993FFF702F8B5
:104A200000230022206808A9FDF71AFD2068B0E7DE
:104A300043460122EB5C13434246AB54059B2D6178
:104A4000DA19AB616A60BA4252D8002B13D12068E0
:104A50009FE74346EB5C0122934342462068AB54F8
:104A600097E743465246EB5C1A42F4D1280000F027
:104A700037FA20688DE75B46291D1868FDF7A6FB0D
:104A8000206886E7079B0193069B01990293059B8B
:104A9000029803939847049B0193002B83DA2068C4
:104AA00077E7FEF7F7FBFEF779FC336805008342F2
:104AB00011D85B461B6820681A68791B53425A411B
:104AC0003560FDF70BFFFFF7B3FC002800D05DE772
:104AD000FFF77AF85AE7FFF7DDFE3560FFF7A8FC2D
:104AE00054E7FFF7D7FE6CE7BB4201D9934280D968
:104AF0004B46291D1868FDF769FB206849E7FFF759
:104B000097FC4B461B68DB68DB689A460433180049
:104B10000193FDF773FB424653469B5C04221A4205
:104B200009D10122414693435246535453465046BD
:104B30001B6A98472AE7534651469A690961BB1890
:104B40004B60AB4205D94B4601991868FDF73EFB17
:104B5000ECE7ED1BAA420FD82368002BE6D0002318
:104B60000A9108930997FEF75DFF00230022206851
:104B700008A9FDF775FCD9E75B4601991868FDF7B0
:104B800025FBD3E75C0600206C060020000A02200B
:104B9000980902200451001070B582B0FFF72EF87A
:104BA000174C2368002B12D0FFF736FE2368002035
:104BB000002B0AD0134B802201931F23124900932C
:104BC00012480023D200FFF7B5FC02B070BD104EB2
:104BD0003000FDF7DFFA0F4D2800FDF7DBFA0E4B32
:104BE00000221E600D4B10210A201D60FDF702FC03
:104BF00020600028D8D00A49FDF740FED4E7C0461F
:104C0000000A0220040A0220345100103149001029
:104C100034090220480902205C0600206C060020AE
:104C20002C51001010B514001A00022384B05B420E
:104C30000093054B01900291186869460023039484
:104C4000FDF7F4FC04B010BD000A0220F8B50D0019
:104C5000EFF3108772B60C4B10309B6884001E591E
:104C6000B14205D0094B9E420BD3094B9E4208D25C
:104C7000054B9B681D51BFF35F8F87F31088300091
:104C8000F8BDFCF729FBF3E700ED00E0C0010010E0
:104C9000CC01001003BDC04610B50400FBF784FD35
:104CA000A04710BDF0B5040087B00F200E0017001C
:104CB000FBF7F4FB002105000F20FBF7DDFB0023D1
:104CC00000220092019301230293D02304960594BD
:104CD000002600240121022003971B06002C14D07B
:104CE0001A6D1042FCD05C6540BF1A6D114203D1B1
:104CF00020BF1A6D1142FBD09A6DA2420AD0002645
:104D00006C46B200A458E9E79A6D1A6D1142FBD1C6
:104D100040BFE5E70136052EF2D929000F20FBF749
:104D2000ABFB07B0F0BDC0460B4B0C4A10B593422D
:104D300001D201235B421900094A985004329B506A
:104D4000084A094B0948CA50094B9A68044B9C46CB
:104D50006144FFF7A7FF10BD0008042000000420F5
:104D6000F4070000994C0010FC070000954C00105F
:104D700000ED00E0F0B5D6464F464646C0B504000B
:104D8000FEF788FA4F4A1768002F48D04E4B1D682F
:104D900025423BD1631E0A3338D820000723083050
:104DA00003422DD1494B99461B68984683422DD327
:104DB000474B9C461B68644604E01A68002A04D0EE
:104DC0001C00130059688142F7D3BB421ED01E005D
:104DD0001A68083622600A1A102A48D842464846FD
:104DE000521A02603B480468A24200D202600022CC
:104DF0001A60394A2943596013680133136006E089
:104E000002009A4313000833834227D80026FFF795
:104E10000FFB3000E0BCBA46B146A846F0BD072003
:104E20002E4908421CD180239B02CF1808000B009A
:104E30000021274D083F696028600725AF43802582
:104E40001760244AFB1A1360204A796039601360A6
:104E500043601D4B2D0607601D6099E71800A1E710
:104E6000CB1D8343802080020F181800E0E719183B
:104E70004A608A4662465860110012689245FBD823
:104E800048680C18A2450DD0504640685446241876
:104E9000A2420DD050460260514501D052460A60F0
:104EA00059689BE7544664688A4600194860EDE7F4
:104EB000BA42EFD054681268A44654466044606019
:104EC0002260E9E7640600205C0902208C090220C8
:104ED000CC0902209C090220A80902201009002008
:104EE00070B5002809D01D4A0838436812680400CC
:104EF0001A4202D00168002900D070BD934343607C
:104F00000500FEF7C7F9164A616813685B1813605D
:104F1000144B1A001B689C42FBD850681618B44208
:104F200018D0681883420AD02B60AA4200D01560BE
:104F30000D4A136801331360FFF77AFADDE70B4877
:104F400000688342F0D058681B68844661446960F9
:104F50002B60EAE7091815005160E2E75C090220BE
:104F60008C090220CC090220AC0902206406002032
:104F700010B583070AD00300032102E001330B427E
:104F800005D01A78002AF9D1181A10BD0300196843
:104F90000C4A0D4C8A188A4322420FD15968094A9B
:104FA00004338A188A43224208D15968054A0433D7
:104FB0008A188A432242F1D000E001331A78002A8D
:104FC000FBD1E1E7FFFEFEFE80808080F8B5C046A1
:104FD00001B40248844601BC604700BF4101002083
:104FE00001B40248844601BC604700BF6101002053
:104FF00001B40248844601BC604700BFFD000020A8
:1050000001B40248844601BC604700BFC1000020D3
:10501000426C696E6B205461736B0000426C696E68
:105020006B205461736B2032000000005370696E76
:105030006C6F636B20256420697320616C726561FD
:10504000647920636C61696D656400004861726415
:105050007761726520616C61726D20256420616CDE
:10506000726561647920636C61696D65640000003C
:105070000A2A2A2A2050414E4943202A2A2A0A0075
:105080000A0000006E6F7420737570706F72746523
:10509000640000004861726420617373657274007B
:1050A00052656C6561736500626F6F74325F773251
:1050B0003571303830000000312E342E30000000C1
:1050C0007069636F00000000626C696E6B00000025
:1050D0004A616E20323220323032330006005250A4
:1050E000BBFF3CB6C050001006005250E182887FE2
:1050F000A850001006005250D3F07542A050001086
:105100000D0A0000D2490010D2490010D249001007
:10511000524A0010304A0010624A0010D249001072
:10512000D2490010524A0010304A0010546D72519A
:0C51300000000000546D722053766300F4
:10513C00B4020010A80200109C020010DC500010F9
:0C514C0090020010E8500010F450001019
:1051580070B5040000F050F8050002E0200000F0EF
:105168005BF82268EFF3108172B61368002BFCD04D
:10517800BFF35F8F63680133F0D165602368BFF3C5
:105188005F8F00221A6081F3108870BD70B50268C5
:105198000400EFF3108572B61368002BFCD0BFF340
:1051A8005F8F63685A1C0DD0002909D000200B605E
:1051B8002368BFF35F8F00221A6085F3108870BDE3
:1051C8000020F5E700F018F860600120F0E7C0461D
:1051D80010B50268EFF3108172B61368002BFCD08B
:1051E800BFF35F8F01235B42436000F00DF810BDF1
:1051F8007047C0460000000001B40248844601BC64
:10520800604700BF651E001001B40248844601BC17
:10521800604700BF011F001001B40248844601BC6A
:10522800604700BF951E001010000000000000003D
:105238000000010000000000000000000000020063
:105248000000000000000000000003000000000053
:10525800000000000000FF000000000000B54868E2
:1052680001318E460047704609380149884700BD1C
:10527800F5060010FC01002000000000600200207C
:10528800F8050020000000000000000008060020CB
:1052980000000000000000001000000000000000F6
:1052A800503300004C3300005433000052330000E8
:1052B8004D5300004D4300005334000043340000B8
:1052C800FF0000001F0000000000000000000000B8
:1052D8000000000000000000F1180010D5160010B2
:1052E800A117001061180010ED020010851F0010B2
:04000005100001E9FD
:00000001FF
